{
  "contractName": "ERC20Basic",
  "abi": [
    {
      "inputs": [
        {
          "internalType": "uint256",
          "name": "initialSupply",
          "type": "uint256"
        }
      ],
      "stateMutability": "nonpayable",
      "type": "constructor"
    },
    {
      "anonymous": false,
      "inputs": [
        {
          "indexed": true,
          "internalType": "address",
          "name": "owner",
          "type": "address"
        },
        {
          "indexed": true,
          "internalType": "address",
          "name": "spender",
          "type": "address"
        },
        {
          "indexed": false,
          "internalType": "uint256",
          "name": "tokens",
          "type": "uint256"
        }
      ],
      "name": "Approval",
      "type": "event"
    },
    {
      "anonymous": false,
      "inputs": [
        {
          "indexed": true,
          "internalType": "address",
          "name": "from",
          "type": "address"
        },
        {
          "indexed": true,
          "internalType": "address",
          "name": "to",
          "type": "address"
        },
        {
          "indexed": false,
          "internalType": "uint256",
          "name": "tokens",
          "type": "uint256"
        }
      ],
      "name": "Transfer",
      "type": "event"
    },
    {
      "inputs": [],
      "name": "decimals",
      "outputs": [
        {
          "internalType": "uint8",
          "name": "",
          "type": "uint8"
        }
      ],
      "stateMutability": "view",
      "type": "function"
    },
    {
      "inputs": [],
      "name": "name",
      "outputs": [
        {
          "internalType": "string",
          "name": "",
          "type": "string"
        }
      ],
      "stateMutability": "view",
      "type": "function"
    },
    {
      "inputs": [],
      "name": "symbol",
      "outputs": [
        {
          "internalType": "string",
          "name": "",
          "type": "string"
        }
      ],
      "stateMutability": "view",
      "type": "function"
    },
    {
      "inputs": [],
      "name": "totalSupply",
      "outputs": [
        {
          "internalType": "uint256",
          "name": "",
          "type": "uint256"
        }
      ],
      "stateMutability": "view",
      "type": "function"
    },
    {
      "inputs": [
        {
          "internalType": "uint256",
          "name": "newTokensAmount",
          "type": "uint256"
        }
      ],
      "name": "increaseTotalSupply",
      "outputs": [],
      "stateMutability": "nonpayable",
      "type": "function"
    },
    {
      "inputs": [
        {
          "internalType": "address",
          "name": "tokenOwner",
          "type": "address"
        }
      ],
      "name": "balanceOf",
      "outputs": [
        {
          "internalType": "uint256",
          "name": "",
          "type": "uint256"
        }
      ],
      "stateMutability": "view",
      "type": "function"
    },
    {
      "inputs": [
        {
          "internalType": "address",
          "name": "owner",
          "type": "address"
        },
        {
          "internalType": "address",
          "name": "delegate",
          "type": "address"
        }
      ],
      "name": "allowance",
      "outputs": [
        {
          "internalType": "uint256",
          "name": "",
          "type": "uint256"
        }
      ],
      "stateMutability": "view",
      "type": "function"
    },
    {
      "inputs": [
        {
          "internalType": "address",
          "name": "recipient",
          "type": "address"
        },
        {
          "internalType": "uint256",
          "name": "numTokens",
          "type": "uint256"
        }
      ],
      "name": "transfer",
      "outputs": [
        {
          "internalType": "bool",
          "name": "",
          "type": "bool"
        }
      ],
      "stateMutability": "nonpayable",
      "type": "function"
    },
    {
      "inputs": [
        {
          "internalType": "address",
          "name": "_cliente",
          "type": "address"
        },
        {
          "internalType": "address",
          "name": "recipient",
          "type": "address"
        },
        {
          "internalType": "uint256",
          "name": "numTokens",
          "type": "uint256"
        }
      ],
      "name": "transferenciaP2P",
      "outputs": [
        {
          "internalType": "bool",
          "name": "",
          "type": "bool"
        }
      ],
      "stateMutability": "nonpayable",
      "type": "function"
    },
    {
      "inputs": [
        {
          "internalType": "address",
          "name": "delegate",
          "type": "address"
        },
        {
          "internalType": "uint256",
          "name": "numTokens",
          "type": "uint256"
        }
      ],
      "name": "approve",
      "outputs": [
        {
          "internalType": "bool",
          "name": "",
          "type": "bool"
        }
      ],
      "stateMutability": "nonpayable",
      "type": "function"
    },
    {
      "inputs": [
        {
          "internalType": "address",
          "name": "owner",
          "type": "address"
        },
        {
          "internalType": "address",
          "name": "buyer",
          "type": "address"
        },
        {
          "internalType": "uint256",
          "name": "numTokens",
          "type": "uint256"
        }
      ],
      "name": "transferFrom",
      "outputs": [
        {
          "internalType": "bool",
          "name": "",
          "type": "bool"
        }
      ],
      "stateMutability": "nonpayable",
      "type": "function"
    }
  ],
  "bytecode": "0x608060405234801561001057600080fd5b506040516110ad3803806110ad8339818101604052810190610032919061009a565b80600081905550600054600160003373ffffffffffffffffffffffffffffffffffffffff1673ffffffffffffffffffffffffffffffffffffffff16815260200190815260200160002081905550506100e4565b600081519050610094816100cd565b92915050565b6000602082840312156100ac57600080fd5b60006100ba84828501610085565b91505092915050565b6000819050919050565b6100d6816100c3565b81146100e157600080fd5b50565b610fba806100f36000396000f3fe608060405234801561001057600080fd5b50600436106100a95760003560e01c8063313ce56711610071578063313ce5671461016657806370a082311461018457806395d89b41146101b4578063a9059cbb146101d2578063ad1f990d14610202578063dd62ed3e14610232576100a9565b806306fdde03146100ae578063095ea7b3146100cc57806318160ddd146100fc5780631d43cc981461011a57806323b872dd14610136575b600080fd5b6100b6610262565b6040516100c39190610e49565b60405180910390f35b6100e660048036038101906100e19190610d63565b61029b565b6040516100f39190610e2e565b60405180910390f35b61010461038d565b6040516101119190610e6b565b60405180910390f35b610134600480360381019061012f9190610d9f565b610396565b005b610150600480360381019061014b9190610d14565b6103f5565b60405161015d9190610e2e565b60405180910390f35b61016e610775565b60405161017b9190610e86565b60405180910390f35b61019e60048036038101906101999190610caf565b61077a565b6040516101ab9190610e6b565b60405180910390f35b6101bc6107c3565b6040516101c99190610e49565b60405180910390f35b6101ec60048036038101906101e79190610d63565b6107fc565b6040516101f99190610e2e565b60405180910390f35b61021c60048036038101906102179190610d14565b6109e3565b6040516102299190610e2e565b60405180910390f35b61024c60048036038101906102479190610cd8565b610bcb565b6040516102599190610e6b565b60405180910390f35b6040518060400160405280600581526020017f4d436f696e00000000000000000000000000000000000000000000000000000081525081565b600081600260003373ffffffffffffffffffffffffffffffffffffffff1673ffffffffffffffffffffffffffffffffffffffff16815260200190815260200160002060008573ffffffffffffffffffffffffffffffffffffffff1673ffffffffffffffffffffffffffffffffffffffff168152602001908152602001600020819055508273ffffffffffffffffffffffffffffffffffffffff163373ffffffffffffffffffffffffffffffffffffffff167f8c5be1e5ebec7d5bd14f71427d1e84f3dd0314c0f7b2291e5b200ac8c7c3b9258460405161037b9190610e6b565b60405180910390a36001905092915050565b60008054905090565b80600080828254019250508190555080600160003373ffffffffffffffffffffffffffffffffffffffff1673ffffffffffffffffffffffffffffffffffffffff1681526020019081526020016000206000828254019250508190555050565b600081600160008673ffffffffffffffffffffffffffffffffffffffff1673ffffffffffffffffffffffffffffffffffffffff16815260200190815260200160002054101561044357600080fd5b600260008573ffffffffffffffffffffffffffffffffffffffff1673ffffffffffffffffffffffffffffffffffffffff16815260200190815260200160002060003373ffffffffffffffffffffffffffffffffffffffff1673ffffffffffffffffffffffffffffffffffffffff168152602001908152602001600020548211156104cc57600080fd5b61051e82600160008773ffffffffffffffffffffffffffffffffffffffff1673ffffffffffffffffffffffffffffffffffffffff16815260200190815260200160002054610c5290919063ffffffff16565b600160008673ffffffffffffffffffffffffffffffffffffffff1673ffffffffffffffffffffffffffffffffffffffff168152602001908152602001600020819055506105f082600260008773ffffffffffffffffffffffffffffffffffffffff1673ffffffffffffffffffffffffffffffffffffffff16815260200190815260200160002060003373ffffffffffffffffffffffffffffffffffffffff1673ffffffffffffffffffffffffffffffffffffffff16815260200190815260200160002054610c5290919063ffffffff16565b600260008673ffffffffffffffffffffffffffffffffffffffff1673ffffffffffffffffffffffffffffffffffffffff16815260200190815260200160002060003373ffffffffffffffffffffffffffffffffffffffff1673ffffffffffffffffffffffffffffffffffffffff168152602001908152602001600020819055506106c282600160008673ffffffffffffffffffffffffffffffffffffffff1673ffffffffffffffffffffffffffffffffffffffff16815260200190815260200160002054610c6990919063ffffffff16565b600160008573ffffffffffffffffffffffffffffffffffffffff1673ffffffffffffffffffffffffffffffffffffffff168152602001908152602001600020819055508273ffffffffffffffffffffffffffffffffffffffff168473ffffffffffffffffffffffffffffffffffffffff167fddf252ad1be2c89b69c2b068fc378daa952ba7f163c4a11628f55a4df523b3ef846040516107629190610e6b565b60405180910390a3600190509392505050565b600281565b6000600160008373ffffffffffffffffffffffffffffffffffffffff1673ffffffffffffffffffffffffffffffffffffffff168152602001908152602001600020549050919050565b6040518060400160405280600381526020017f4d434e000000000000000000000000000000000000000000000000000000000081525081565b600081600160003373ffffffffffffffffffffffffffffffffffffffff1673ffffffffffffffffffffffffffffffffffffffff16815260200190815260200160002054101561084a57600080fd5b61089c82600160003373ffffffffffffffffffffffffffffffffffffffff1673ffffffffffffffffffffffffffffffffffffffff16815260200190815260200160002054610c5290919063ffffffff16565b600160003373ffffffffffffffffffffffffffffffffffffffff1673ffffffffffffffffffffffffffffffffffffffff1681526020019081526020016000208190555061093182600160008673ffffffffffffffffffffffffffffffffffffffff1673ffffffffffffffffffffffffffffffffffffffff16815260200190815260200160002054610c6990919063ffffffff16565b600160008573ffffffffffffffffffffffffffffffffffffffff1673ffffffffffffffffffffffffffffffffffffffff168152602001908152602001600020819055508273ffffffffffffffffffffffffffffffffffffffff163373ffffffffffffffffffffffffffffffffffffffff167fddf252ad1be2c89b69c2b068fc378daa952ba7f163c4a11628f55a4df523b3ef846040516109d19190610e6b565b60405180910390a36001905092915050565b600081600160008673ffffffffffffffffffffffffffffffffffffffff1673ffffffffffffffffffffffffffffffffffffffff168152602001908152602001600020541015610a3157600080fd5b610a8382600160008773ffffffffffffffffffffffffffffffffffffffff1673ffffffffffffffffffffffffffffffffffffffff16815260200190815260200160002054610c5290919063ffffffff16565b600160008673ffffffffffffffffffffffffffffffffffffffff1673ffffffffffffffffffffffffffffffffffffffff16815260200190815260200160002081905550610b1882600160008673ffffffffffffffffffffffffffffffffffffffff1673ffffffffffffffffffffffffffffffffffffffff16815260200190815260200160002054610c6990919063ffffffff16565b600160008573ffffffffffffffffffffffffffffffffffffffff1673ffffffffffffffffffffffffffffffffffffffff168152602001908152602001600020819055508273ffffffffffffffffffffffffffffffffffffffff168473ffffffffffffffffffffffffffffffffffffffff167fddf252ad1be2c89b69c2b068fc378daa952ba7f163c4a11628f55a4df523b3ef84604051610bb89190610e6b565b60405180910390a3600190509392505050565b6000600260008473ffffffffffffffffffffffffffffffffffffffff1673ffffffffffffffffffffffffffffffffffffffff16815260200190815260200160002060008373ffffffffffffffffffffffffffffffffffffffff1673ffffffffffffffffffffffffffffffffffffffff16815260200190815260200160002054905092915050565b600082821115610c5e57fe5b818303905092915050565b600080828401905083811015610c7b57fe5b8091505092915050565b600081359050610c9481610f56565b92915050565b600081359050610ca981610f6d565b92915050565b600060208284031215610cc157600080fd5b6000610ccf84828501610c85565b91505092915050565b60008060408385031215610ceb57600080fd5b6000610cf985828601610c85565b9250506020610d0a85828601610c85565b9150509250929050565b600080600060608486031215610d2957600080fd5b6000610d3786828701610c85565b9350506020610d4886828701610c85565b9250506040610d5986828701610c9a565b9150509250925092565b60008060408385031215610d7657600080fd5b6000610d8485828601610c85565b9250506020610d9585828601610c9a565b9150509250929050565b600060208284031215610db157600080fd5b6000610dbf84828501610c9a565b91505092915050565b610dd181610ecf565b82525050565b6000610de282610ea1565b610dec8185610eac565b9350610dfc818560208601610f12565b610e0581610f45565b840191505092915050565b610e1981610efb565b82525050565b610e2881610f05565b82525050565b6000602082019050610e436000830184610dc8565b92915050565b60006020820190508181036000830152610e638184610dd7565b905092915050565b6000602082019050610e806000830184610e10565b92915050565b6000602082019050610e9b6000830184610e1f565b92915050565b600081519050919050565b600082825260208201905092915050565b6000610ec882610edb565b9050919050565b60008115159050919050565b600073ffffffffffffffffffffffffffffffffffffffff82169050919050565b6000819050919050565b600060ff82169050919050565b60005b83811015610f30578082015181840152602081019050610f15565b83811115610f3f576000848401525b50505050565b6000601f19601f8301169050919050565b610f5f81610ebd565b8114610f6a57600080fd5b50565b610f7681610efb565b8114610f8157600080fd5b5056fea26469706673582212208246e0544a80998f4a6de120f54b40735e299a6f1060b5451e1b192fa7f849f164736f6c63430006080033",
  "immutableReferences": {},
  "source": "// SPDX-License-Identifier: MIT\r\npragma solidity >=0.4.4 <0.8.0;\r\npragma experimental ABIEncoderV2;\r\nimport \"./SafeMath.sol\";\r\n\r\n//Marc ----> 0x5B38Da6a701c568545dCfcB03FcB875f56beddC4\r\n//Pedro ----> 0xAb8483F64d9C6d1EcF9b849Ae677dD3315835cb2\r\n//Maria ----> 0x4B20993Bc481177ec7E8f571ceCaE8A9e22C02db\r\n\r\n//Interface de nuestro token ERC20\r\ninterface IERC20{\r\n    //Devuelve la cantidad de tokens en existencia\r\n    function totalSupply() external view returns(uint256);\r\n\r\n    //Devuelve la cantidad de tokens para una direccion indicada por parametro\r\n    function balanceOf(address account) external view returns(uint256);\r\n\r\n    //Devuelve el numero de tokens que el spender podra gastar en nombre del propietario(owner)\r\n    function allowance(address owner, address spender) external view returns(uint256);\r\n\r\n    //Devuelve un valor booleano resultado de la operacion indicada\r\n    function transfer(address recipient, uint256 amount) external returns(bool);\r\n\r\n    function transferenciaP2P(address _cliente, address recipient, uint256 numTokens) external returns(bool);\r\n\r\n    //Devuelve un valor booleano con el resultado de la operacion de gasto\r\n    function approve(address spender, uint256 amount) external returns(bool);\r\n\r\n    //Devuelve un valor booleano con el resultado de la operacion de paso de una cantidad de tokens usando el metodo allowance\r\n    function transferFrom(address sender, address recipient, uint256 amount) external returns(bool);\r\n    \r\n    //Evento que se debe emitir cuando una cantidad de tokens se pase de un origen a un destino\r\n    event Transfer(address indexed from, address indexed to, uint256 value);\r\n\r\n    //Evento que se debe emitir cuando de establece una asignacion con el metodo allowance\r\n    event Approval(address indexed owner, address indexed spender, uint256 value);\r\n}\r\n\r\n//Implementacion de las funciones del token ERC20\r\ncontract ERC20Basic is IERC20{\r\n\r\n    string public constant name = \"MCoin\";\r\n    string public constant symbol = \"MCN\";\r\n\r\n    uint8 public constant decimals = 2;\r\n    uint256 totalSupply_;\r\n\r\n    constructor(uint256 initialSupply) public{\r\n        totalSupply_ = initialSupply;\r\n        balances[msg.sender] = totalSupply_;\r\n    }\r\n\r\n    event Transfer(address indexed from, address indexed to, uint256 tokens);\r\n    event Approval(address indexed owner, address indexed spender, uint256 tokens);\r\n\r\n    using SafeMath for uint256;\r\n\r\n    mapping(address => uint) balances;\r\n    mapping(address => mapping(address => uint)) allowed;\r\n\r\n    function totalSupply() public override view returns(uint256){\r\n        return totalSupply_;\r\n    }\r\n\r\n    function increaseTotalSupply(uint newTokensAmount) public{\r\n        totalSupply_ += newTokensAmount;\r\n        balances[msg.sender] += newTokensAmount;\r\n    }\r\n\r\n    function balanceOf(address tokenOwner) public override view returns(uint256){\r\n        return balances[tokenOwner];\r\n    }\r\n\r\n    function allowance(address owner, address delegate) public override view returns(uint256){\r\n        return allowed[owner][delegate];\r\n    }\r\n\r\n    function transfer(address recipient, uint256 numTokens) public override returns(bool){\r\n        require(balances[msg.sender] >= numTokens);\r\n\r\n        //Primero quitamos de donde queremos enviar y luego lo sumamos a la otra cartera\r\n        balances[msg.sender] = balances[msg.sender].sub(numTokens);\r\n        balances[recipient] = balances[recipient].add(numTokens);\r\n        \r\n        emit Transfer(msg.sender, recipient, numTokens);\r\n\r\n        return true;\r\n    }\r\n\r\n    function transferenciaP2P(address _cliente, address recipient, uint256 numTokens) public override returns(bool){\r\n        require(balances[_cliente] >= numTokens);\r\n\r\n        //Primero quitamos de donde queremos enviar y luego lo sumamos a la otra cartera\r\n        balances[_cliente] = balances[_cliente].sub(numTokens);\r\n        balances[recipient] = balances[recipient].add(numTokens);\r\n        \r\n        emit Transfer(_cliente, recipient, numTokens);\r\n\r\n        return true;\r\n    }\r\n\r\n    function approve(address delegate, uint256 numTokens) public override returns(bool){\r\n        allowed[msg.sender][delegate] = numTokens;\r\n        emit Approval(msg.sender, delegate, numTokens);\r\n        return true;\r\n    }\r\n\r\n    //El msg sender es el intermediario, no es una tranferencia directa como el transfer.\r\n    function transferFrom(address owner, address buyer, uint256 numTokens) public override returns(bool){\r\n        require(balances[owner] >= numTokens);\r\n        //Hay que tener permitido poder tradear con esos tokens\r\n        require(numTokens <= allowed[owner][msg.sender]);\r\n\r\n        balances[owner] = balances[owner].sub(numTokens);\r\n        allowed[owner][msg.sender] = allowed[owner][msg.sender].sub(numTokens);\r\n        balances[buyer] = balances[buyer].add(numTokens);\r\n\r\n        emit Transfer(owner, buyer, numTokens);\r\n\r\n        return true;\r\n    }\r\n    \r\n}\r\n",
  "sourcePath": "D:\\Documentos\\Project\\Plantilla DAPP\\src\\contracts\\ERC20.sol",
  "compiler": {
    "name": "solc",
    "version": "0.6.8+commit.0bbfe453.Emscripten.clang"
  },
  "schemaVersion": "3.4.4",
  "updatedAt": "2022-02-02T10:39:44.063Z",
  "devdoc": {
    "methods": {}
  },
  "userdoc": {
    "methods": {}
  }
}