{
  "contractName": "loteria",
  "abi": [
    {
      "inputs": [],
      "stateMutability": "nonpayable",
      "type": "constructor"
    },
    {
      "anonymous": false,
      "inputs": [
        {
          "indexed": false,
          "internalType": "uint256",
          "name": "",
          "type": "uint256"
        },
        {
          "indexed": false,
          "internalType": "address",
          "name": "",
          "type": "address"
        }
      ],
      "name": "boleto_comprado",
      "type": "event"
    },
    {
      "anonymous": false,
      "inputs": [
        {
          "indexed": false,
          "internalType": "uint256",
          "name": "",
          "type": "uint256"
        }
      ],
      "name": "boleto_ganador",
      "type": "event"
    },
    {
      "anonymous": false,
      "inputs": [
        {
          "indexed": false,
          "internalType": "uint256",
          "name": "",
          "type": "uint256"
        },
        {
          "indexed": false,
          "internalType": "address",
          "name": "",
          "type": "address"
        }
      ],
      "name": "comprarTokens",
      "type": "event"
    },
    {
      "anonymous": false,
      "inputs": [
        {
          "indexed": false,
          "internalType": "uint256",
          "name": "",
          "type": "uint256"
        },
        {
          "indexed": false,
          "internalType": "address",
          "name": "",
          "type": "address"
        }
      ],
      "name": "tokens_devueltos",
      "type": "event"
    },
    {
      "inputs": [],
      "name": "contrato",
      "outputs": [
        {
          "internalType": "address",
          "name": "",
          "type": "address"
        }
      ],
      "stateMutability": "view",
      "type": "function",
      "constant": true
    },
    {
      "inputs": [],
      "name": "direccion_ganador",
      "outputs": [
        {
          "internalType": "address",
          "name": "",
          "type": "address"
        }
      ],
      "stateMutability": "view",
      "type": "function",
      "constant": true
    },
    {
      "inputs": [],
      "name": "owner",
      "outputs": [
        {
          "internalType": "address",
          "name": "",
          "type": "address"
        }
      ],
      "stateMutability": "view",
      "type": "function",
      "constant": true
    },
    {
      "inputs": [],
      "name": "precio_boleto",
      "outputs": [
        {
          "internalType": "uint256",
          "name": "",
          "type": "uint256"
        }
      ],
      "stateMutability": "view",
      "type": "function",
      "constant": true
    },
    {
      "inputs": [
        {
          "internalType": "uint256",
          "name": "_numTokens",
          "type": "uint256"
        }
      ],
      "name": "crearTokens",
      "outputs": [],
      "stateMutability": "nonpayable",
      "type": "function"
    },
    {
      "inputs": [
        {
          "internalType": "address",
          "name": "_propietario",
          "type": "address"
        },
        {
          "internalType": "uint256",
          "name": "_numTokens",
          "type": "uint256"
        }
      ],
      "name": "compraTokens",
      "outputs": [],
      "stateMutability": "payable",
      "type": "function",
      "payable": true
    },
    {
      "inputs": [],
      "name": "TokensDisponibles",
      "outputs": [
        {
          "internalType": "uint256",
          "name": "",
          "type": "uint256"
        }
      ],
      "stateMutability": "view",
      "type": "function",
      "constant": true
    },
    {
      "inputs": [],
      "name": "MisTokens",
      "outputs": [
        {
          "internalType": "uint256",
          "name": "",
          "type": "uint256"
        }
      ],
      "stateMutability": "view",
      "type": "function",
      "constant": true
    },
    {
      "inputs": [],
      "name": "Bote",
      "outputs": [
        {
          "internalType": "uint256",
          "name": "",
          "type": "uint256"
        }
      ],
      "stateMutability": "view",
      "type": "function",
      "constant": true
    },
    {
      "inputs": [
        {
          "internalType": "uint256",
          "name": "_numBoletos",
          "type": "uint256"
        }
      ],
      "name": "ComprarBoletos",
      "outputs": [],
      "stateMutability": "nonpayable",
      "type": "function"
    },
    {
      "inputs": [],
      "name": "verBoletos",
      "outputs": [
        {
          "internalType": "uint256[]",
          "name": "",
          "type": "uint256[]"
        }
      ],
      "stateMutability": "view",
      "type": "function",
      "constant": true
    },
    {
      "inputs": [],
      "name": "GenerarGanador",
      "outputs": [],
      "stateMutability": "nonpayable",
      "type": "function"
    },
    {
      "inputs": [
        {
          "internalType": "uint256",
          "name": "_numToken",
          "type": "uint256"
        }
      ],
      "name": "TokenToEther",
      "outputs": [],
      "stateMutability": "payable",
      "type": "function",
      "payable": true
    }
  ],
  "bytecode": "0x60806040526127106004556005805560006008553480156200002057600080fd5b50600454604051620000329062000123565b6200003e919062000142565b604051809103906000f0801580156200005b573d6000803e3d6000fd5b506000806101000a81548173ffffffffffffffffffffffffffffffffffffffff021916908373ffffffffffffffffffffffffffffffffffffffff16021790555033600160006101000a81548173ffffffffffffffffffffffffffffffffffffffff021916908373ffffffffffffffffffffffffffffffffffffffff16021790555030600260006101000a81548173ffffffffffffffffffffffffffffffffffffffff021916908373ffffffffffffffffffffffffffffffffffffffff16021790555062000169565b6110ad8062001a3483390190565b6200013c816200015f565b82525050565b600060208201905062000159600083018462000131565b92915050565b6000819050919050565b6118bb80620001796000396000f3fe6080604052600436106100c25760003560e01c8063c3747f5c1161007f578063dd8e728d11610059578063dd8e728d14610214578063e1a01e671461023f578063e33f34a01461026a578063fd889ff514610295576100c2565b8063c3747f5c146101a4578063c62c97c9146101c0578063ca67c159146101eb576100c2565b80631ea8376f146100c75780635332eee5146100f25780635685a075146101095780636809064914610125578063741898611461014e5780638da5cb5b14610179575b600080fd5b3480156100d357600080fd5b506100dc6102c0565b6040516100e991906116be565b60405180910390f35b3480156100fe57600080fd5b506101076102c6565b005b610123600480360381019061011e919061110f565b6105af565b005b34801561013157600080fd5b5061014c60048036038101906101479190611174565b61078b565b005b34801561015a57600080fd5b50610163610a3d565b60405161017091906116be565b60405180910390f35b34801561018557600080fd5b5061018e610b10565b60405161019b91906114ef565b60405180910390f35b6101be60048036038101906101b99190611174565b610b36565b005b3480156101cc57600080fd5b506101d5610d21565b6040516101e291906115bc565b60405180910390f35b3480156101f757600080fd5b50610212600480360381019061020d9190611174565b610db6565b005b34801561022057600080fd5b50610229610ed7565b60405161023691906114ef565b60405180910390f35b34801561024b57600080fd5b50610254610efd565b60405161026191906114ef565b60405180910390f35b34801561027657600080fd5b5061027f610f23565b60405161028c91906116be565b60405180910390f35b3480156102a157600080fd5b506102aa610fd4565b6040516102b791906116be565b60405180910390f35b60055481565b33600160009054906101000a900473ffffffffffffffffffffffffffffffffffffffff1673ffffffffffffffffffffffffffffffffffffffff163373ffffffffffffffffffffffffffffffffffffffff1614610357576040517f08c379a000000000000000000000000000000000000000000000000000000000815260040161034e906115de565b60405180910390fd5b60006009805490501161039f576040517f08c379a00000000000000000000000000000000000000000000000000000000081526004016103969061169e565b60405180910390fd5b6000600980549050905060008142336008546040516020016103c3939291906114b2565b6040516020818303038152906040528051906020012060001c816103e357fe5b0690506000600982815481106103f557fe5b906000526020600020015490507f7ae8aa8a76009e9379a432b67d892b6006479447de6892c862ce780785a2387d8160405161043191906116be565b60405180910390a16007600082815260200190815260200160002060009054906101000a900473ffffffffffffffffffffffffffffffffffffffff16600360006101000a81548173ffffffffffffffffffffffffffffffffffffffff021916908373ffffffffffffffffffffffffffffffffffffffff1602179055506000809054906101000a900473ffffffffffffffffffffffffffffffffffffffff1673ffffffffffffffffffffffffffffffffffffffff1663ad1f990d600160009054906101000a900473ffffffffffffffffffffffffffffffffffffffff16600360009054906101000a900473ffffffffffffffffffffffffffffffffffffffff16610538610a3d565b6040518463ffffffff1660e01b81526004016105569392919061155c565b602060405180830381600087803b15801561057057600080fd5b505af1158015610584573d6000803e3d6000fd5b505050506040513d601f19601f820116820180604052508101906105a8919061114b565b5050505050565b60006105ba826110a7565b9050803410156105ff576040517f08c379a00000000000000000000000000000000000000000000000000000000081526004016105f69061167e565b60405180910390fd5b600081340390503373ffffffffffffffffffffffffffffffffffffffff166108fc829081150290604051600060405180830381858888f1935050505015801561064c573d6000803e3d6000fd5b506000610657610fd4565b90508381101561069c576040517f08c379a00000000000000000000000000000000000000000000000000000000081526004016106939061163e565b60405180910390fd5b6000809054906101000a900473ffffffffffffffffffffffffffffffffffffffff1673ffffffffffffffffffffffffffffffffffffffff1663a9059cbb86866040518363ffffffff1660e01b81526004016106f8929190611593565b602060405180830381600087803b15801561071257600080fd5b505af1158015610726573d6000803e3d6000fd5b505050506040513d601f19601f8201168201806040525081019061074a919061114b565b507fc29f6292e002d175070b3592fb2e1b6a1c636c8ed2a1e9acb73ebe529bfd04b8848660405161077c9291906116d9565b60405180910390a15050505050565b60006005548202905061079c610f23565b8111156107de576040517f08c379a00000000000000000000000000000000000000000000000000000000081526004016107d5906115fe565b60405180910390fd5b6000809054906101000a900473ffffffffffffffffffffffffffffffffffffffff1673ffffffffffffffffffffffffffffffffffffffff1663ad1f990d33600160009054906101000a900473ffffffffffffffffffffffffffffffffffffffff16846040518463ffffffff1660e01b815260040161085e93929190611525565b602060405180830381600087803b15801561087857600080fd5b505af115801561088c573d6000803e3d6000fd5b505050506040513d601f19601f820116820180604052508101906108b0919061114b565b5060008090505b82811015610a3857600061271042336008546040516020016108db939291906114b2565b6040516020818303038152906040528051906020012060001c816108fb57fe5b0690506008600081548092919060010191905055506009819080600181540180825580915050600190039060005260206000200160009091909190915055600660003373ffffffffffffffffffffffffffffffffffffffff1673ffffffffffffffffffffffffffffffffffffffff168152602001908152602001600020819080600181540180825580915050600190039060005260206000200160009091909190915055336007600083815260200190815260200160002060006101000a81548173ffffffffffffffffffffffffffffffffffffffff021916908373ffffffffffffffffffffffffffffffffffffffff1602179055507f3dc84428040dff15296d25a054aea6c52a38e013683cf8175ec47e9849d101fe8133604051610a22929190611702565b60405180910390a15080806001019150506108b7565b505050565b60008060009054906101000a900473ffffffffffffffffffffffffffffffffffffffff1673ffffffffffffffffffffffffffffffffffffffff166370a08231600160009054906101000a900473ffffffffffffffffffffffffffffffffffffffff166040518263ffffffff1660e01b8152600401610abb91906114ef565b60206040518083038186803b158015610ad357600080fd5b505afa158015610ae7573d6000803e3d6000fd5b505050506040513d601f19601f82011682018060405250810190610b0b919061119d565b905090565b600160009054906101000a900473ffffffffffffffffffffffffffffffffffffffff1681565b60008111610b79576040517f08c379a0000000000000000000000000000000000000000000000000000000008152600401610b709061161e565b60405180910390fd5b80610b82610f23565b1015610bc3576040517f08c379a0000000000000000000000000000000000000000000000000000000008152600401610bba9061165e565b60405180910390fd5b6000809054906101000a900473ffffffffffffffffffffffffffffffffffffffff1673ffffffffffffffffffffffffffffffffffffffff1663ad1f990d33600260009054906101000a900473ffffffffffffffffffffffffffffffffffffffff16846040518463ffffffff1660e01b8152600401610c4393929190611525565b602060405180830381600087803b158015610c5d57600080fd5b505af1158015610c71573d6000803e3d6000fd5b505050506040513d601f19601f82011682018060405250810190610c95919061114b565b503373ffffffffffffffffffffffffffffffffffffffff166108fc610cb9836110a7565b9081150290604051600060405180830381858888f19350505050158015610ce4573d6000803e3d6000fd5b507fedb4e62d28b4facd6d91f70625ac1ea2c1a9cac0ecc3e638b50633575d818a4e8133604051610d16929190611702565b60405180910390a150565b6060600660003373ffffffffffffffffffffffffffffffffffffffff1673ffffffffffffffffffffffffffffffffffffffff168152602001908152602001600020805480602002602001604051908101604052809291908181526020018280548015610dac57602002820191906000526020600020905b815481526020019060010190808311610d98575b5050505050905090565b33600160009054906101000a900473ffffffffffffffffffffffffffffffffffffffff1673ffffffffffffffffffffffffffffffffffffffff163373ffffffffffffffffffffffffffffffffffffffff1614610e47576040517f08c379a0000000000000000000000000000000000000000000000000000000008152600401610e3e906115de565b60405180910390fd5b6000809054906101000a900473ffffffffffffffffffffffffffffffffffffffff1673ffffffffffffffffffffffffffffffffffffffff16631d43cc98836040518263ffffffff1660e01b8152600401610ea191906116be565b600060405180830381600087803b158015610ebb57600080fd5b505af1158015610ecf573d6000803e3d6000fd5b505050505050565b600360009054906101000a900473ffffffffffffffffffffffffffffffffffffffff1681565b600260009054906101000a900473ffffffffffffffffffffffffffffffffffffffff1681565b60008060009054906101000a900473ffffffffffffffffffffffffffffffffffffffff1673ffffffffffffffffffffffffffffffffffffffff166370a08231336040518263ffffffff1660e01b8152600401610f7f919061150a565b60206040518083038186803b158015610f9757600080fd5b505afa158015610fab573d6000803e3d6000fd5b505050506040513d601f19601f82011682018060405250810190610fcf919061119d565b905090565b60008060009054906101000a900473ffffffffffffffffffffffffffffffffffffffff1673ffffffffffffffffffffffffffffffffffffffff166370a08231600260009054906101000a900473ffffffffffffffffffffffffffffffffffffffff166040518263ffffffff1660e01b815260040161105291906114ef565b60206040518083038186803b15801561106a57600080fd5b505afa15801561107e573d6000803e3d6000fd5b505050506040513d601f19601f820116820180604052508101906110a2919061119d565b905090565b6000670de0b6b3a764000082029050919050565b6000813590506110ca81611840565b92915050565b6000815190506110df81611857565b92915050565b6000813590506110f48161186e565b92915050565b6000815190506111098161186e565b92915050565b6000806040838503121561112257600080fd5b6000611130858286016110bb565b9250506020611141858286016110e5565b9150509250929050565b60006020828403121561115d57600080fd5b600061116b848285016110d0565b91505092915050565b60006020828403121561118657600080fd5b6000611194848285016110e5565b91505092915050565b6000602082840312156111af57600080fd5b60006111bd848285016110fa565b91505092915050565b60006111d2838361147d565b60208301905092915050565b6111e7816117cf565b82525050565b6111fe6111f982611787565b611805565b82525050565b61120d81611775565b82525050565b600061121e8261173b565b6112288185611753565b93506112338361172b565b8060005b8381101561126457815161124b88826111c6565b975061125683611746565b925050600181019050611237565b5085935050505092915050565b600061127e603d83611764565b91507f4e6f207469656e6573206c6f73207065726d69736f7320737566696369656e7460008301527f6573207061726120656a65637574617220657374612066756e63696f6e0000006020830152604082019050919050565b60006112e4601483611764565b91507f4e6563657369746173206d617320746f6b656e730000000000000000000000006000830152602082019050919050565b6000611324601c83611764565b91507f456c206e756d65726f2068612064652073657220706f73697469766f000000006000830152602082019050919050565b6000611364602583611764565b91507f436f6d70726120756e206e756d65726f20646520746f6b656e7320646973706f60008301527f6e69626c650000000000000000000000000000000000000000000000000000006020830152604082019050919050565b60006113ca601c83611764565b91507f4e6f207469656e657320737566696369656e74657320746f6b656e73000000006000830152602082019050919050565b600061140a601983611764565b91507f4e6f207469656e657320737566696369656e74657320455448000000000000006000830152602082019050919050565b600061144a601883611764565b91507f6e6f2068617920626f6c65746f7320636f6d707261646f7300000000000000006000830152602082019050919050565b611486816117c5565b82525050565b611495816117c5565b82525050565b6114ac6114a7826117c5565b611829565b82525050565b60006114be828661149b565b6020820191506114ce82856111ed565b6014820191506114de828461149b565b602082019150819050949350505050565b60006020820190506115046000830184611204565b92915050565b600060208201905061151f60008301846111de565b92915050565b600060608201905061153a60008301866111de565b6115476020830185611204565b611554604083018461148c565b949350505050565b60006060820190506115716000830186611204565b61157e6020830185611204565b61158b604083018461148c565b949350505050565b60006040820190506115a86000830185611204565b6115b5602083018461148c565b9392505050565b600060208201905081810360008301526115d68184611213565b905092915050565b600060208201905081810360008301526115f781611271565b9050919050565b60006020820190508181036000830152611617816112d7565b9050919050565b6000602082019050818103600083015261163781611317565b9050919050565b6000602082019050818103600083015261165781611357565b9050919050565b60006020820190508181036000830152611677816113bd565b9050919050565b60006020820190508181036000830152611697816113fd565b9050919050565b600060208201905081810360008301526116b78161143d565b9050919050565b60006020820190506116d3600083018461148c565b92915050565b60006040820190506116ee600083018561148c565b6116fb6020830184611204565b9392505050565b6000604082019050611717600083018561148c565b61172460208301846111de565b9392505050565b6000819050602082019050919050565b600081519050919050565b6000602082019050919050565b600082825260208201905092915050565b600082825260208201905092915050565b6000611780826117a5565b9050919050565b6000611792826117a5565b9050919050565b60008115159050919050565b600073ffffffffffffffffffffffffffffffffffffffff82169050919050565b6000819050919050565b60006117da826117e1565b9050919050565b60006117ec826117f3565b9050919050565b60006117fe826117a5565b9050919050565b600061181082611817565b9050919050565b600061182282611833565b9050919050565b6000819050919050565b60008160601b9050919050565b61184981611775565b811461185457600080fd5b50565b61186081611799565b811461186b57600080fd5b50565b611877816117c5565b811461188257600080fd5b5056fea264697066735822122063bd52c47ab3245df5dfdff1d917c836af22cf3f8d34bccd2121ffc5cd94cd3664736f6c63430006080033608060405234801561001057600080fd5b506040516110ad3803806110ad8339818101604052810190610032919061009a565b80600081905550600054600160003373ffffffffffffffffffffffffffffffffffffffff1673ffffffffffffffffffffffffffffffffffffffff16815260200190815260200160002081905550506100e4565b600081519050610094816100cd565b92915050565b6000602082840312156100ac57600080fd5b60006100ba84828501610085565b91505092915050565b6000819050919050565b6100d6816100c3565b81146100e157600080fd5b50565b610fba806100f36000396000f3fe608060405234801561001057600080fd5b50600436106100a95760003560e01c8063313ce56711610071578063313ce5671461016657806370a082311461018457806395d89b41146101b4578063a9059cbb146101d2578063ad1f990d14610202578063dd62ed3e14610232576100a9565b806306fdde03146100ae578063095ea7b3146100cc57806318160ddd146100fc5780631d43cc981461011a57806323b872dd14610136575b600080fd5b6100b6610262565b6040516100c39190610e49565b60405180910390f35b6100e660048036038101906100e19190610d63565b61029b565b6040516100f39190610e2e565b60405180910390f35b61010461038d565b6040516101119190610e6b565b60405180910390f35b610134600480360381019061012f9190610d9f565b610396565b005b610150600480360381019061014b9190610d14565b6103f5565b60405161015d9190610e2e565b60405180910390f35b61016e610775565b60405161017b9190610e86565b60405180910390f35b61019e60048036038101906101999190610caf565b61077a565b6040516101ab9190610e6b565b60405180910390f35b6101bc6107c3565b6040516101c99190610e49565b60405180910390f35b6101ec60048036038101906101e79190610d63565b6107fc565b6040516101f99190610e2e565b60405180910390f35b61021c60048036038101906102179190610d14565b6109e3565b6040516102299190610e2e565b60405180910390f35b61024c60048036038101906102479190610cd8565b610bcb565b6040516102599190610e6b565b60405180910390f35b6040518060400160405280600581526020017f4d436f696e00000000000000000000000000000000000000000000000000000081525081565b600081600260003373ffffffffffffffffffffffffffffffffffffffff1673ffffffffffffffffffffffffffffffffffffffff16815260200190815260200160002060008573ffffffffffffffffffffffffffffffffffffffff1673ffffffffffffffffffffffffffffffffffffffff168152602001908152602001600020819055508273ffffffffffffffffffffffffffffffffffffffff163373ffffffffffffffffffffffffffffffffffffffff167f8c5be1e5ebec7d5bd14f71427d1e84f3dd0314c0f7b2291e5b200ac8c7c3b9258460405161037b9190610e6b565b60405180910390a36001905092915050565b60008054905090565b80600080828254019250508190555080600160003373ffffffffffffffffffffffffffffffffffffffff1673ffffffffffffffffffffffffffffffffffffffff1681526020019081526020016000206000828254019250508190555050565b600081600160008673ffffffffffffffffffffffffffffffffffffffff1673ffffffffffffffffffffffffffffffffffffffff16815260200190815260200160002054101561044357600080fd5b600260008573ffffffffffffffffffffffffffffffffffffffff1673ffffffffffffffffffffffffffffffffffffffff16815260200190815260200160002060003373ffffffffffffffffffffffffffffffffffffffff1673ffffffffffffffffffffffffffffffffffffffff168152602001908152602001600020548211156104cc57600080fd5b61051e82600160008773ffffffffffffffffffffffffffffffffffffffff1673ffffffffffffffffffffffffffffffffffffffff16815260200190815260200160002054610c5290919063ffffffff16565b600160008673ffffffffffffffffffffffffffffffffffffffff1673ffffffffffffffffffffffffffffffffffffffff168152602001908152602001600020819055506105f082600260008773ffffffffffffffffffffffffffffffffffffffff1673ffffffffffffffffffffffffffffffffffffffff16815260200190815260200160002060003373ffffffffffffffffffffffffffffffffffffffff1673ffffffffffffffffffffffffffffffffffffffff16815260200190815260200160002054610c5290919063ffffffff16565b600260008673ffffffffffffffffffffffffffffffffffffffff1673ffffffffffffffffffffffffffffffffffffffff16815260200190815260200160002060003373ffffffffffffffffffffffffffffffffffffffff1673ffffffffffffffffffffffffffffffffffffffff168152602001908152602001600020819055506106c282600160008673ffffffffffffffffffffffffffffffffffffffff1673ffffffffffffffffffffffffffffffffffffffff16815260200190815260200160002054610c6990919063ffffffff16565b600160008573ffffffffffffffffffffffffffffffffffffffff1673ffffffffffffffffffffffffffffffffffffffff168152602001908152602001600020819055508273ffffffffffffffffffffffffffffffffffffffff168473ffffffffffffffffffffffffffffffffffffffff167fddf252ad1be2c89b69c2b068fc378daa952ba7f163c4a11628f55a4df523b3ef846040516107629190610e6b565b60405180910390a3600190509392505050565b600281565b6000600160008373ffffffffffffffffffffffffffffffffffffffff1673ffffffffffffffffffffffffffffffffffffffff168152602001908152602001600020549050919050565b6040518060400160405280600381526020017f4d434e000000000000000000000000000000000000000000000000000000000081525081565b600081600160003373ffffffffffffffffffffffffffffffffffffffff1673ffffffffffffffffffffffffffffffffffffffff16815260200190815260200160002054101561084a57600080fd5b61089c82600160003373ffffffffffffffffffffffffffffffffffffffff1673ffffffffffffffffffffffffffffffffffffffff16815260200190815260200160002054610c5290919063ffffffff16565b600160003373ffffffffffffffffffffffffffffffffffffffff1673ffffffffffffffffffffffffffffffffffffffff1681526020019081526020016000208190555061093182600160008673ffffffffffffffffffffffffffffffffffffffff1673ffffffffffffffffffffffffffffffffffffffff16815260200190815260200160002054610c6990919063ffffffff16565b600160008573ffffffffffffffffffffffffffffffffffffffff1673ffffffffffffffffffffffffffffffffffffffff168152602001908152602001600020819055508273ffffffffffffffffffffffffffffffffffffffff163373ffffffffffffffffffffffffffffffffffffffff167fddf252ad1be2c89b69c2b068fc378daa952ba7f163c4a11628f55a4df523b3ef846040516109d19190610e6b565b60405180910390a36001905092915050565b600081600160008673ffffffffffffffffffffffffffffffffffffffff1673ffffffffffffffffffffffffffffffffffffffff168152602001908152602001600020541015610a3157600080fd5b610a8382600160008773ffffffffffffffffffffffffffffffffffffffff1673ffffffffffffffffffffffffffffffffffffffff16815260200190815260200160002054610c5290919063ffffffff16565b600160008673ffffffffffffffffffffffffffffffffffffffff1673ffffffffffffffffffffffffffffffffffffffff16815260200190815260200160002081905550610b1882600160008673ffffffffffffffffffffffffffffffffffffffff1673ffffffffffffffffffffffffffffffffffffffff16815260200190815260200160002054610c6990919063ffffffff16565b600160008573ffffffffffffffffffffffffffffffffffffffff1673ffffffffffffffffffffffffffffffffffffffff168152602001908152602001600020819055508273ffffffffffffffffffffffffffffffffffffffff168473ffffffffffffffffffffffffffffffffffffffff167fddf252ad1be2c89b69c2b068fc378daa952ba7f163c4a11628f55a4df523b3ef84604051610bb89190610e6b565b60405180910390a3600190509392505050565b6000600260008473ffffffffffffffffffffffffffffffffffffffff1673ffffffffffffffffffffffffffffffffffffffff16815260200190815260200160002060008373ffffffffffffffffffffffffffffffffffffffff1673ffffffffffffffffffffffffffffffffffffffff16815260200190815260200160002054905092915050565b600082821115610c5e57fe5b818303905092915050565b600080828401905083811015610c7b57fe5b8091505092915050565b600081359050610c9481610f56565b92915050565b600081359050610ca981610f6d565b92915050565b600060208284031215610cc157600080fd5b6000610ccf84828501610c85565b91505092915050565b60008060408385031215610ceb57600080fd5b6000610cf985828601610c85565b9250506020610d0a85828601610c85565b9150509250929050565b600080600060608486031215610d2957600080fd5b6000610d3786828701610c85565b9350506020610d4886828701610c85565b9250506040610d5986828701610c9a565b9150509250925092565b60008060408385031215610d7657600080fd5b6000610d8485828601610c85565b9250506020610d9585828601610c9a565b9150509250929050565b600060208284031215610db157600080fd5b6000610dbf84828501610c9a565b91505092915050565b610dd181610ecf565b82525050565b6000610de282610ea1565b610dec8185610eac565b9350610dfc818560208601610f12565b610e0581610f45565b840191505092915050565b610e1981610efb565b82525050565b610e2881610f05565b82525050565b6000602082019050610e436000830184610dc8565b92915050565b60006020820190508181036000830152610e638184610dd7565b905092915050565b6000602082019050610e806000830184610e10565b92915050565b6000602082019050610e9b6000830184610e1f565b92915050565b600081519050919050565b600082825260208201905092915050565b6000610ec882610edb565b9050919050565b60008115159050919050565b600073ffffffffffffffffffffffffffffffffffffffff82169050919050565b6000819050919050565b600060ff82169050919050565b60005b83811015610f30578082015181840152602081019050610f15565b83811115610f3f576000848401525b50505050565b6000601f19601f8301169050919050565b610f5f81610ebd565b8114610f6a57600080fd5b50565b610f7681610efb565b8114610f8157600080fd5b5056fea26469706673582212208246e0544a80998f4a6de120f54b40735e299a6f1060b5451e1b192fa7f849f164736f6c63430006080033",
  "immutableReferences": {},
  "source": "// SPDX-License-Identifier: MIT\r\npragma solidity >=0.4.4 <0.8.0;\r\npragma experimental ABIEncoderV2;\r\nimport \"./ERC20.sol\";\r\n\r\ncontract loteria{\r\n\r\n    //------------------------------------------------ DECLARACIONES INCIALES ------------------------------------------------//\r\n\r\n    //Instancia del contrato Token\r\n    ERC20Basic private token;\r\n\r\n    //Direcciones\r\n    address public owner;\r\n    address public contrato;\r\n    address public direccion_ganador;\r\n\r\n    uint tokens_creados = 10000;\r\n\r\n    //EVENTOS\r\n    event comprarTokens(uint, address);\r\n\r\n    constructor() public{\r\n        token = new ERC20Basic(tokens_creados);\r\n        owner = msg.sender;\r\n        contrato = address(this);\r\n    }\r\n\r\n    //------------------------------------------------ TOKEN ------------------------------------------------//\r\n\r\n    //Establecer el precio del token en ether\r\n    function PrecioToken(uint _numTokens) internal pure returns(uint){\r\n        return _numTokens * (1 ether);\r\n    }\r\n\r\n    //Modificador para que solo el Owner pueda ejecutar una funcion\r\n    modifier SoloStaff(address direccion){\r\n        require(msg.sender == owner, \"No tienes los permisos suficientes para ejecutar esta funcion\");\r\n        _;\r\n    }\r\n\r\n    //Para generar nuevos tokens\r\n    function crearTokens(uint _numTokens) public SoloStaff(msg.sender){\r\n        token.increaseTotalSupply(_numTokens);\r\n    }\r\n\r\n    //Comprar tokens para comprar tickets para la loteria\r\n    function compraTokens(address _propietario, uint _numTokens) public payable {\r\n        uint coste = PrecioToken(_numTokens);\r\n        require(msg.value >=coste, \"No tienes suficientes ETH\");\r\n        //Diferencia si paga con mas ETH del necesario\r\n        uint extraTokens = msg.value - coste;\r\n        msg.sender.transfer(extraTokens);\r\n        //Obtener el balance de tokens del contrato\r\n        uint balance = TokensDisponibles();\r\n        require(balance >= _numTokens,\"Compra un numero de tokens disponible\");\r\n        token.transfer(_propietario, _numTokens);\r\n\r\n        emit comprarTokens(_numTokens, _propietario);\r\n    }\r\n\r\n    //Balance de tokens en el contrato de la loteria\r\n    function TokensDisponibles() public view returns(uint){\r\n        return token.balanceOf(contrato);\r\n    }\r\n\r\n    function MisTokens() public view returns(uint){\r\n         return token.balanceOf(msg.sender);\r\n    }\r\n\r\n    //Obtener el balance de tokens acumulados en el Bote(El owner los guarda porque en el contrato no se podrian diferenciar)\r\n    function Bote() public view returns(uint){\r\n        return token.balanceOf(owner);\r\n    }\r\n\r\n    //------------------------------------------------ LOTERIA ------------------------------------------------//\r\n\r\n    //Precio del boleto en Tokens\r\n    uint public precio_boleto = 5;\r\n\r\n    //Relacion entre la persona que compra los boletos y los numeros de los boletos\r\n    mapping(address => uint[]) idPersona_boletos;\r\n    //relacion para identificar al ganador\r\n    mapping(uint => address) ADN_boleto;\r\n    //Numero aleatorio para generar boletos\r\n    uint randNonce = 0;\r\n    //Boletos generados\r\n    uint[] boletos_comprados;\r\n    //Eventos \r\n    event boleto_comprado(uint, address); //Cuando se compra un boleto\r\n    event boleto_ganador(uint); //Cuando se gana\r\n    event tokens_devueltos(uint, address);\r\n\r\n    function ComprarBoletos(uint _numBoletos) public {\r\n        //Precio total de los boletos a comprar\r\n        uint precio_total = _numBoletos * precio_boleto;\r\n        require(precio_total <= MisTokens(), \"Necesitas mas tokens\");\r\n        token.transferenciaP2P(msg.sender, owner, precio_total);\r\n\r\n        /*\r\n        Lo que esto haria es tomar la marca de tiempo now, el msg.sender y un nonce\r\n        (numero que solo se utiliza una vez para que no ejecutemos dos veces la misma funcion de hash con los mismos \r\n        parametros de entrada) en incremento. Luego se utiliza keccak256 para convertir esras entradas a un hash aleatorio,\r\n        convertir ese hash a uint y luego utilizamos %10000 para tomar los ultimos 4 digitos.\r\n        Dando un aleatorio entre 0 - 9999\r\n        */\r\n\r\n        for(uint i = 0; i < _numBoletos; i++){\r\n            uint random = uint(keccak256(abi.encodePacked(now, msg.sender, randNonce))) % 10000;\r\n            randNonce++;\r\n            boletos_comprados.push(random);\r\n            idPersona_boletos[msg.sender].push(random);\r\n            ADN_boleto[random] = msg.sender;\r\n            emit boleto_comprado(random, msg.sender);\r\n        }\r\n    }\r\n\r\n    function verBoletos() public view returns(uint[] memory){\r\n        return idPersona_boletos[msg.sender];\r\n    }\r\n\r\n    function GenerarGanador() public SoloStaff(msg.sender){\r\n        require(boletos_comprados.length > 0, \"no hay boletos comprados\");\r\n        //Declaracion de la longitud del array\r\n        uint longitud = boletos_comprados.length;\r\n        //Aleatoriamente se elige un numero entre 0 - Longitud\r\n        //Eleccion de una posicion aleatoria del array\r\n        uint posicion_array = uint(uint(keccak256(abi.encodePacked(now, msg.sender, randNonce))) % longitud);\r\n        uint eleccion = boletos_comprados[posicion_array];\r\n\r\n        emit boleto_ganador(eleccion);\r\n        //Enviar tokens del premio del Bote al ganador\r\n        direccion_ganador = ADN_boleto[eleccion];\r\n        token.transferenciaP2P(owner,direccion_ganador, Bote());\r\n    }\r\n\r\n    //Devuelve los tokens a eth\r\n    function TokenToEther(uint _numToken) public payable{\r\n        require(_numToken > 0, \"El numero ha de ser positivo\");\r\n        require(MisTokens() >= _numToken, \"No tienes suficientes tokens\");\r\n        //DEVOLUCION\r\n        token.transferenciaP2P(msg.sender, contrato, _numToken);\r\n        msg.sender.transfer(PrecioToken(_numToken));\r\n\r\n        emit tokens_devueltos(_numToken, msg.sender);\r\n    }\r\n}",
  "sourcePath": "D:\\Documentos\\Project\\Plantilla DAPP\\src\\contracts\\loteria.sol",
  "compiler": {
    "name": "solc",
    "version": "0.6.8+commit.0bbfe453.Emscripten.clang"
  },
  "schemaVersion": "3.4.4",
  "updatedAt": "2022-02-02T10:39:48.325Z",
  "networkType": "ethereum",
  "devdoc": {
    "methods": {}
  },
  "userdoc": {
    "methods": {}
  }
}